:020000040800F2
:100000000050002021020008290200082D020008EB
:10001000A1020008A5020008ED020008000000008F
:100020000000000000000000000000003503000890
:1000300039030008000000003D0300083D0F0008E0
:100040005103000851030008510300085103000840
:100050005103000851030008510300085103000830
:100060005103000851030008510300085103000820
:100070005103000851030008510300085103000810
:100080005103000851030008510300085103000800
:1000900051030008510300085103000851030008F0
:1000A00051030008510300085103000851030008E0
:1000B00051030008510300085103000851030008D0
:1000C00051030008510300085103000851030008C0
:1000D000510300084D1B000851030008510300089C
:1000E00051030008510300085103000800000000FC
:1000F0000000000000000000000000000000000000
:1001000000000000000000005FF808F100B583B0B7
:1001100000F0B0F9304B314A1360314A1360314B73
:10012000314A03E011681960043304322F498B42CD
:10013000F8D32A4B1A682E4B9A4204D1284B1A68DE
:100140002C4B9A4200D0FEE7234B2B4A13602B4ADC
:1001500013602B4B02E000221A600433294A9342B9
:10016000F9D3254B1B6813B9244B1B6803B1FEE779
:1001700000F08CF9694601A800F026F9224C234BC7
:100180001C1BA410002504E01F4B53F82530984792
:100190000135AC42F8DC1E4C1E4B1C1BA410002584
:1001A00004E01B4B53F8253098470135AC42F8DC8E
:1001B0000099019801F036FD0546174C174B1C1BA2
:1001C000A41004E0013C144B53F824309847002C51
:1001D000F8DC284600F0D4F8BABADECA00000020E5
:1001E000BC00002000000020142B0008C0000020EC
:1001F0007856341232547698C00000200C03002048
:10020000C0000020100300207C0300087C030008CD
:100210007C0300087C0300087C0300087C030008C2
:1002200008B5FFF773FF00BF00BEFEE71EF0040F26
:100230000CBFEFF30880EFF309807146414A104785
:100240002DE9F04182B004468846134B5E6B9F6BEC
:100250009D6A1B6B13F0020F0DD00F4BDB6A002B56
:1002600009DA4BF6AB6100F08DF920B14FF0004296
:10027000094BDA620CE0094800F0AEF8CDF80080D6
:100280003B4632462946204600F004F900BEFEE710
:1002900002B0BDE8F08100BF00ED00E000290008D9
:1002A00000BEFEE71EF0040F0CBFEFF30880EFF373
:1002B00009807146244A10472DE9F04182B0044676
:1002C0008846084B5E6B9F6B9D6A074800F084F878
:1002D000CDF800803B4632462946204600F0DAF849
:1002E00000BEFEE700ED00E0102900081EF0040F3C
:1002F0000CBFEFF30880EFF309807146134A1047F3
:100300002DE9F04182B004468846084B5E6B9F6B36
:100310009D6A074800F060F8CDF800803B46324601
:100320002946204600F0B6F800BEFEE700ED00E0EA
:100330001C29000800BEFEE700BEFEE700BEFEE787
:100340007047000041020008B902000801030008DC
:0403500000BEFEE706
:10035400142B000800000020C0000020142B00080B
:100364000000000000000000C00000201003002076
:08037400000000000000000081
:10038000FEE700BF08B50D4B1B6813B90C4A0B4BB9
:100390001A600A4B1A68C31C23F00303134409496B
:1003A0008B4206D901F0D4FD0C2303604FF0FF30DF
:1003B00008BD02490B60104608BD00BFC400002004
:1003C00010030020004C002001230360014B0B6050
:1003D000704700BF040000200FB400B583B004AB29
:1003E00053F8042B01938021064801F0E3FD002817
:1003F00003DD0146034800F039F803B05DF804EB73
:1004000004B07047CC0000202DE9F04385B00446CD
:100410000F46435613BB042528462146ABBE04466F
:100420001FE03546102E28BF1025002306E014F9E2
:10043000011B04AA1A4402F8101C0133AB42F6D384
:1004400004AA1344002203F8102CE9464FF00408D4
:1004500040464946ABBE8046761B00E00E46002E65
:10046000DFD1384605B0BDE8F08300BF08B5FFF71F
:10047000CBFF08BD08B500F0FBF8024B024A9A60BA
:1004800008BD00BF00ED00E00000000808B500F066
:1004900017F908BDF8B504460D4617461E4626480E
:1004A000FFF79AFF21682548FFF796FF6168244807
:1004B000FFF792FFA1682348FFF78EFFE16822480B
:1004C000FFF78AFF21692148FFF786FF616920480D
:1004D000FFF782FFA1691F48FFF77EFFE1691E4811
:1004E000FFF77AFF1D48FFF777FF29461C48FFF703
:1004F00073FF1C4CE16A1C48FFF76EFF216B1B4821
:10050000FFF76AFFE16B1A48FFF766FF15F0800FEF
:1005100003D039461748FFF75FFF15F4004F03D0AB
:1005200031461548FFF758FF1448FFF755FF069965
:100530001348FFF751FFF8BDE4270008F42700082F
:10054000042800081428000824280008342800087B
:10055000442800085428000864280008742800086B
:100560008028000800ED00E090280008A02800087E
:10057000B0280008C0280008D0280008E02800089B
:10058000E828000883691A888A4207D10268033A7A
:10059000012A05D80233836101207047002070478B
:1005A0000020704782B00023019300932C4A136807
:1005B00043F4803313602A4B1B6803F40033009329
:1005C000019B01330193009B1BB9019BB3F5A06F05
:1005D000F1D1234B1B6813F4003F02D00123009399
:1005E00001E000230093009B012B36D11D4B1A68BC
:1005F00042F010021A601A6822F003021A601A68A8
:1006000042F002021A60A3F580535A685A605A6891
:100610005A605A6842F480625A605A6822F47C1226
:100620005A605A6842F4E8125A601A6842F08072BE
:100630001A600B4B1B6813F0007FFAD0084B5A6806
:1006400022F003025A605A6842F002025A60044BD8
:100650005B6803F00C03082BF9D102B0704700BFB0
:10066000001002400020024008B5FFF79BFF08BDC4
:1006700008B5104B1A6842F001021A6059680E4A18
:100680000A405A601A6822F0847222F480321A609A
:100690001A6822F480221A605A6822F4FE025A6014
:1006A0004FF41F029A60FFF7DFFF4FF00062034B29
:1006B0009A6008BD001002400000FFF800ED00E065
:1006C0001F4B5B6803F00C03042B06D0082B08D0EB
:1006D0003BBB1C4A1C4B1A6026E01A4A1A4B1A6094
:1006E00022E0174A53685268C3F38343023312F47B
:1006F000803F05D1154A02FB03F3134A136013E050
:100700000F4A526812F4003F05D0104A02FB03F36F
:100710000D4A136008E00B4A02FB03F30A4A136018
:1007200002E0084A084B1A60054B5B68C3F30313E9
:10073000074AD35CDAB204490B68D3400B607047B8
:100740000010024000127A001C00002000093D0049
:100750000C00002008B50521014801F0FFF808BD94
:100760005C01002010B584B0334B1B78FF2B16D1F1
:10077000314B5B78FF2B12D12F4B9B78FF2B0ED187
:100780002D4BDB78FF2B0AD100222C4B1A6004A8DA
:10079000302300F8103D012100F040FF45E0264BDA
:1007A0001B79CC2B04D10121002000F083FF05E050
:1007B000AA2B03D10021084600F07CFF1E4A1178C5
:1007C0001E4B19705178597091789970D278DA70FF
:1007D00005230EE003EB83035900194BA3FB02032F
:1007E000DB081C4603EB83035800131A0B44134A1F
:1007F0001460124A1268002AECD1002110E0104A5D
:10080000A2FB0302D208144602EB820250001A1A1D
:1008100004AB0B44303203F8102C23460131C9B22B
:10082000052BECD1684600F0F9FE0521024801F0E5
:1008300099F804B010BD00BF5001002058010020FD
:10084000CDCCCCCC00B583B00DF10701002001F078
:1008500027F89DF80730FA2B07D1164A13680133A1
:100860001360CC22144B1A7006E0BB2B03D1AA22D2
:10087000114B1A7000E000BF0E4B1B684BB90F4BB9
:10088000FF221A705A709A70DA700B4A12781A7135
:100890000CE0084A1178094B197051785970917819
:1008A0009970D278DA70044A12781A7103B05DF840
:1008B00004FB00BF4C010020550100205C0100201A
:1008C00008B50021084600F0C5FE08BD10B501219D
:1008D000284800F0D7F90121274800F0D3F9012179
:1008E000264800F0CFF90421254800F011FA00F065
:1008F00097FD0446234800F0BFFE2043C4B2012107
:100900004D2000F08BFE2043C4B200F0BFFE204318
:10091000C4B20021084600F0CDFE2043C4B200F06E
:1009200049FF2043C4B200F0E1FF2043C4B216489F
:1009300001F024F82043C4B2144801F017F8204312
:10094000C4B2134B134A1A606E225A601248FF2336
:10095000037043708370C370AA230371052100F0F4
:10096000FDFF05210D4800F0FDFF01F047F8204391
:10097000C0B210BD00400020040000201000002084
:1009800002000008C10800086507000855070008B4
:10099000A4010020450800085C010020500100204F
:1009A00008B501F061F800BFFDE700BF2DE9F04F89
:1009B00089B0D0E90289D0E9042348EA020849EA6B
:1009C0000309018800230C46CDE900BC84469CE065
:1009D00014F0010F00F08E8008F00F020C2A38D0BE
:1009E000082A36D0DCF818709E000F21A6F1200EE0
:1009F000C6F1200001FA0EF521FA00F00543039537
:100A0000B1400291D7E90001DDE902AB20EA0A0A10
:100A100021EA0B0B50465946C7E90001DCF8187073
:100A2000D0B2C6F12002002500FA0EF10D4320FAE3
:100A300002F21543019500FA06F20092D7E900018F
:100A4000DDE9005605430E4328463146C7E900015B
:100A500050E00C2A01D0082A5CD1DCF818E09F0095
:100A60000F21A7F1200AC7F1200001FA0AF521FAA7
:100A700000F005430595B9400491DEE90001DDE988
:100A800004AB20EA0A0A21EA0B0B50465946CEE98C
:100A90000001DCF818E00821A7F1200AC7F12000C6
:100AA00001FA0AF521FA00F005430795B9400691CD
:100AB000DEE90001DDE906AB4AEA000A4BEA010B78
:100AC00050465946CEE90001082A09D1DCF8181031
:100AD000012202FA03F0CA6822EA0002CA6009E0B1
:100AE0000C2A19D1DCF81810012202FA03F6CA68A0
:100AF0003243CA604FEA181242EA09724FEA1911EA
:100B00009046894664080133DBB20F2B7FF660AF55
:100B1000002002E0012000E0012009B0BDE8F08FD4
:100B2000012A02D101610020704712B94161002001
:100B300070470120704700BF224B98420BD003F54D
:100B40008063984207D003F58063984203D003F591
:100B50008063984231D14B1E9BB2012B23D90429CB
:100B600021D008291FD010291DD020291BD04029B1
:100B700019D0802917D0B1F5807F14D0B1F5007F4E
:100B800011D0B1F5806F0ED0B1F5006F0BD0B1F57B
:100B9000805F08D0B1F5005F05D0B1F5804F02D07D
:100BA000B1F5004F0BD10389194203D00123137013
:100BB000002070470020107070470120704701200E
:100BC000704700BF00080140EF280BD8064B1A6899
:100BD000410900F01F00012303FA00F042F8210050
:100BE000002070470120704720000020EF280CD81B
:100BF000074B1968430900F01F00012202FA00F0B8
:100C0000603341F82300002070470120704700BF87
:100C100020000020184B1B6813F00C0203D1174B67
:100C2000036000207047042A03D1144B03600020A6
:100C30007047082A1BD113F4403302D1104B0360D4
:100C40000AE0B3F5403F02D10D4B036004E0B3F579
:100C5000803F0ED1094B0360074B1B68C3F38343EE
:100C60000233026803FB02F3036000207047012097
:100C700070470120704700BF0410024000127A0044
:100C800000093D0000280FDA39B1012932D11D4A8F
:100C9000136818431060002070471A4A136823EA4B
:100CA0000000106000207047830F012B0FD139B175
:100CB000012921D1144A136818431060002070479D
:100CC000114A136823EA0000106000207047430FA8
:100CD000012B13D139B1012912D10C4A13681843E1
:100CE000106000207047094A136823EA0000106072
:100CF0000020704700207047002070470120704797
:100D000000207047141002401C10024018100240CE
:100D1000154A1368C20E012A21D102F100629042E5
:100D20000DD00132904212D0B0F1006F19D123F0F2
:100D3000F00343EA01110C4B19600020704723F4C3
:100D4000E06343EA0121084B19600020704723F457
:100D5000605343EAC121044B196000207047012011
:100D600070470020704700BF0410024030B583B0C8
:100D700004460D4602A8002340F8043DFFF74AFF51
:100D8000002840F08180019A2A60474B1B6813F0CD
:100D9000F00326D0802B02D152082A6021E0902B4C
:100DA00002D192082A601CE0A02B02D1D2082A604E
:100DB00017E0B02B02D112092A6012E0C02B02D139
:100DC00092092A600DE0D02B02D1D2092A6008E0F6
:100DD000E02B02D1120A2A6003E0F02B56D1520A0E
:100DE0002A604D2C02D100BF00205AE04E2C24D1A5
:100DF0002D4B1B6813F4E0634AD0B3F5806F04D128
:100E00002B685B082B6000204BE0B3F5A06F04D18A
:100E10002B689B082B60002043E0B3F5C06F04D122
:100E20002B68DB082B6000203BE0B3F5E06F31D18D
:100E30002B681B092B60002033E04F2C2CD11A4B60
:100E40001B6813F4605329D0B3F5005F04D12B68FD
:100E50005B082B60002024E0B3F5205F04D12B68F1
:100E60009B082B6000201CE0B3F5405F04D12B6889
:100E7000DB082B60002014E0B3F5605F10D12B6815
:100E80001B092B6000200CE001200AE0012008E093
:100E9000002006E0012004E0012002E0002000E044
:100EA000012003B030BD00BF04100240034A1368A4
:100EB00043F0020313600020704700BF10E000E021
:100EC000034A136843F0010313600020704700BF1A
:100ED00010E000E018B1034A1060002070470120C4
:100EE000704700BFAC01002008B5104B1B6813F021
:100EF000040F09D001FB00F10D48A0FB0131890C62
:100F00000C4B1960002008BD084B1B6813F0040F40
:100F100009D1094A0023A0FB010100F089FE054B1D
:100F20001860002008BD012008BD00BF10E000E0EF
:100F300083DE1B4314E000E000127A0008B5034B87
:100F40001B680BB1984708BD00BF08BDAC0100206D
:100F500038B5054600240EE045FA04F20749E31CC3
:100F60005B0101EB441002F00102C95A806FFFF7E8
:100F7000D7FD0134E4B2072CEED938BD3029000882
:100F800030B583B01F4B0DF10702B3F84010986DD8
:100F9000FFF7D2FD9DF807303BB11A4B0022B3F8A2
:100FA0004010986DFFF7BCFD29E0174B1A78174BDE
:100FB0001B789A4209D10023154A1370134A137003
:100FC000144B1B68DBB1984719E00E4C01222188B5
:100FD000A069FFF7A5FD0022218CA06BFFF7A0FD03
:100FE0000A4D2B780C4AD05CFFF7B2FF0122B4F80F
:100FF0004010A06DFFF794FD2B7801332B7003B0E8
:1010000030BD00BF30290008C0020020640100206C
:1010100065010020B0020020B001002010B582B0B0
:101020002F4B0DF10702B3F84010986DFFF784FDC8
:101030009DF8073053B12A4B0022B3F84010986D49
:10104000FFF76EFD0022274B1A7047E0244C002268
:101050002188A069FFF764FD0022218CA06BFFF7B7
:101060005FFD0122B4F86010A06FFFF759FD002268
:10107000B4F88010D4F89800FFF752FD0022B4F8BD
:10108000A010D4F8B800FFF74BFD0022B4F8C01050
:10109000D4F8D800FFF744FD0022B4F8E010D4F8EB
:1010A000F800FFF73DFD0022B4F80011D4F8180154
:1010B000FFF736FD0022B4F82011D4F83801FFF70D
:1010C0002FFD0022B4F84011D4F85801FFF728FD95
:1010D0000122B4F84010A06DFFF722FD02B010BD50
:1010E000302900086501002010B582B01C4B0DF1BD
:1010F0000702B3F84010986DFFF71EFD9DF807300A
:1011000053B1174B0022B3F84010986DFFF708FD5C
:101110000022144B1A7021E0114C00222188A06992
:10112000FFF7FEFC0022218CA06BFFF7F9FC0E4BB1
:101130001B7833B90D4B187880F08000FFF708FF5B
:1011400005E00A4B18784038C0B2FFF701FF044BA6
:101150000122B3F84010986DFFF7E2FC02B010BD19
:101160003029000865010020B5020020B4020020EB
:1011700010B582B0984A13780133DBB213700E2B8E
:1011800040F22681954B1B78012B63D01BB1022BBB
:1011900000F0BF801DE1924B0DF10702B3F8401043
:1011A000986DFFF7C9FC9DF8073053B18C4B0022B6
:1011B000B3F84010986DFFF7B3FC0122874B1A700B
:1011C00007E1874C00222188A069FFF7A9FC0022D3
:1011D000218CA06BFFF7A4FC0022B4F86010A06F74
:1011E000FFF79EFC0022B4F88010D4F89800FFF7B7
:1011F00097FC0022B4F8A010D4F8B800FFF790FCD8
:101200000122B4F8C010D4F8D800FFF789FC0122FD
:10121000B4F8E010D4F8F800FFF782FC0122B4F82B
:101220000011D4F81801FFF77BFC0022B4F820115C
:10123000D4F83801FFF774FC0022B4F84011D4F858
:101240005801FFF76DFC0122B4F84010A06DFFF7C4
:1012500067FCBEE0624B0DF10702B3F84010986DD9
:10126000FFF76AFC9DF8073053B15D4B0022B3F8DD
:101270004010986DFFF754FC0222584B1A70A8E0FA
:10128000574C00222188A069FFF74AFC0022218CDC
:10129000A06BFFF745FC0022B4F86010A06FFFF7C9
:1012A0003FFC0122B4F88010D4F89800FFF738FC16
:1012B0000122B4F8A010D4F8B800FFF731FC0122E5
:1012C000B4F8C010D4F8D800FFF72AFC0022B4F814
:1012D000E010D4F8F800FFF723FC0022B4F8001166
:1012E000D4F81801FFF71CFC0022B4F82011D4F840
:1012F0003801FFF715FC0022B4F84011D4F858016A
:10130000FFF70EFC0122B4F84010A06DFFF708FCB7
:101310005FE0334B0DF10702B3F84010986DFFF713
:101320000BFC9DF8073053B12D4B0022B3F8401051
:10133000986DFFF7F5FB01222A4B1A7049E0284C03
:1013400000222188A069FFF7EBFB0022218CA06B13
:10135000FFF7E6FB0122B4F86010A06FFFF7E0FB97
:101360000022B4F88010D4F89800FFF7D9FB0022CF
:10137000B4F8A010D4F8B800FFF7D2FB0022B4F8FC
:10138000C010D4F8D800FFF7CBFB0022B4F8E0106F
:10139000D4F8F800FFF7C4FB0022B4F80011D4F829
:1013A0001801FFF7BDFB0022B4F82011D4F8380172
:1013B000FFF7B6FB0022B4F84011D4F85801FFF74C
:1013C000AFFB0122B4F84010A06DFFF7A9FB00E0CD
:1013D00000BF02B010BD00BF61010020620100200B
:1013E000302900086301002008B50B4B1B7883B13E
:1013F0000A4B1B78022B06D0032B07D0012B0AD1F6
:10140000FFF7BEFD08BDFFF709FE08BDFFF76CFE44
:1014100008BDFFF7ADFE08BD630100206501002097
:1014200038B56B4B6B4A1A6002225A606A4B9B6953
:101430006A4A934204D101216948FFF723FC2EE058
:10144000684A934204D101216748FFF71BFC26E05C
:10145000664A934204D101216548FFF713FC1EE060
:10146000644A934204D101216348FFF70BFC16E064
:10147000624A934204D101216148FFF703FC0EE068
:10148000604A934204D101215F48FFF7FBFB06E06D
:101490005E4A934203D101215D48FFF7F3FB4E4BB7
:1014A0009B6B4E4A934204D101214D48FFF7EAFB62
:1014B0000EE04C4A934204D101214B48FFF7E2FB76
:1014C00006E04A4A934205D101214948FFF7DAFB79
:1014D00000245CE0474A934204D101214648FFF7CB
:1014E000D1FBF5E7454A934204D101214448FFF777
:1014F000C9FBEDE7434A934204D101214248FFF77B
:10150000C1FBE5E7414A9342E2D101214048FFF7A0
:10151000B9FBDDE7304B03EB44139B6F2F4A93423B
:1015200004D101212E48FFF7ADFB2EE02D4A934256
:1015300004D101212C48FFF7A5FB26E02B4A93425A
:1015400004D101212A48FFF79DFB1EE0294A93425E
:1015500004D101212848FFF795FB16E0274A934262
:1015600004D101212648FFF78DFB0EE0254A934266
:1015700004D101212448FFF785FB06E0234A93426A
:1015800003D101212248FFF77DFB0134E4B2072C8F
:10159000C0D91148FFF70AFA054618B91D48FFF7E8
:1015A00005FA05461DB91C48FFF700FA054655B176
:1015B0000CE02DB9E01C084B03EB4010FFF7F6F9E7
:1015C0000134E4B200E00024072CF2D9284638BDEB
:1015D000B8020020E9130008302900080008014083
:1015E00004000020000C0140080000200010014011
:1015F00010000020001401402000002000180140CD
:1016000040000020001C014080000020002001401C
:1016100000010020502900087029000830B40A4B4E
:101620001D786DB901221A70084B1970002304E06F
:10163000C45C074AD4540133DBB28B42F8D300E0D8
:101640000125284630BC704765010020C0020020FB
:10165000B0010020054B1970054B1870054B187828
:1016600010B903221A70704701207047B40200209D
:10167000B50200206501002018B1034A1060002067
:1016800070470120704700BFB002002038B5002429
:10169000254608E0064800EB4410FFF787F9284389
:1016A000C5B20134E4B2002CF4D0284638BD00BFE6
:1016B000A02A000810B561B1012917D10C494200D8
:1016C0001418A3000B449A7A19895868FFF728FA6E
:1016D00010BD074942001418A3000B449A7A82F007
:1016E000010219895868FFF71BFA10BD002010BDD0
:1016F000902A000830B583B000244EE025466200F1
:1017000022441301274A13440DF107021989186A6C
:10171000FFF712FA244B1A5D9DF807309A4204D164
:10172000224A135D0133135504E000211F4A11556D
:101730001D4A13551D4B5B5D052B2CD105EB450256
:101740001301184A134493F82830DD2B06D19DF875
:1017500007201AB1BB22164B5A5519E0DD2B06D1D2
:101760009DF807201AB9FA22114B5A5510E0EE2BBA
:1017700006D19DF807201AB1FA220D4B5A5507E001
:10178000EE2B05D19DF8073013B9BB22084B5A55F3
:101790000022064B5A550134E4B2002CAED003B0FF
:1017A00030BD00BF280000206C010020680100202F
:1017B000C402002038B5294B294A1A6005225A6014
:1017C0000024204647E0254604EB44021301254A45
:1017D00013441B6A244A934204D101212348FFF792
:1017E00051FA2EE0224A934204D101212148FFF709
:1017F00049FA26E0204A934204D101211F48FFF70D
:1018000041FA1EE01E4A934204D101211D48FFF710
:1018100039FA16E01C4A934204D101211B48FFF714
:1018200031FA0EE01A4A934204D101211948FFF718
:1018300029FA06E0184A934203D101211748FFF71D
:1018400021FA05EB450528010830064B1844FFF73F
:10185000ADF80134E4B2002CB5D038BDC802002088
:10186000F5160008280000200008014004000020B0
:10187000000C014008000020001001401000002072
:10188000001401402000002000180140400000200A
:10189000001C0140800000200020014000010020C9
:1018A000B9B9012070471C4603EB43010A010D49F9
:1018B0008A5C82420AD10C4B1B5D13B9BB220A4BD6
:1018C0001A55094B1B5D2B70002008E00133DBB279
:1018D00002E030B40D460023002BE4D0002030BCE1
:1018E000704700BF28000020C402002030B58BB034
:1018F00000224FF44863CDE9042300222023CDE9E0
:101900000623134B08930AA84FF4C06320F8203D28
:10191000FFF74CF804460F4D29464F20FFF726FAF3
:101920002043C4B22A680C49A1FB0230800B4FF45B
:10193000163303FB10231B01A1FB0331002200928D
:101940001346890B00F0A0F82043C0B20BB030BDA5
:1019500000080140D0020020B5814E1B08B500F000
:10196000ADF808BD08B500F0C7F808BD18B108B556
:1019700000F0E0F808BD0120704700BF18B108B5BD
:1019800000F0DEF808BD0120704700BF024A13686E
:1019900001331360704700BF0803002010B5002218
:1019A000144B1A7020E0144B03EB0213DB688BB965
:1019B000114B03EB02135B68012B0BD10E4C120190
:1019C000A3581B681B6898470A4B1B7804EB031449
:1019D000A368E36007480378074A02EB0312D16863
:1019E0000139D16001330370024B1A78022ADAD927
:1019F00010BD00BFD4020020D802002070B582B014
:101A000001A94D20FFF7B2F910B9064610B902E05E
:101A1000012600E00126FFF749FA1048FFF75AFABD
:101A200001994FF47A70FFF75FFA002310E00C4839
:101A300000EBC3010B4D1C012A19295101245460EC
:101A400050F83300406890604968D1602344DBB2AD
:101A5000022BECD9304602B070BD00BF8D190008D2
:101A6000C02A0008D802002008B5FFF729FA054B64
:101A70001B68002BFBD0013B024A1360FFF78EFF6F
:101A8000F5E700BF0803002010B541EA00110A4C39
:101A9000A160134343F4005343F00C03E360029B43
:101AA00023612520FFF7A2F804462520FFF78CF8D4
:101AB0002043C0B210BD00BF0038014090B199B1C1
:101AC0000B4A127B92B90A4A10609160012111738E
:101AD0000078084B58605160DA6842F04002DA60E2
:101AE0000020704701207047012070470220704796
:101AF0008801002000380140034680B189B10B4ABB
:101B0000127B82B9094A9160002050601360012362
:101B10001373074AD36843F02003D3607047012052
:101B20007047012070470220704700BF78010020F5
:101B300000380140014B18600020704774010020FC
:101B4000014B1860002070477001002008B5304B31
:101B50001B6813F0400F29D023F040032C4A136078
:101B60002C4B1B7B012B1FD12A4B5A689B689A4236
:101B700008D0284B1968895C254A51605A6801329F
:101B80005A6014E0234B00225A609A601A601A735C
:101B90001F4AD36823F04003D3601F4B1B680BB16F
:101BA000984704E000BF02E000BF00E000BF184B10
:101BB0001B6813F0200F28D0184A127B012A22D16B
:101BC000164A5168926891420BD0114923F02003C4
:101BD0000B60124A106853684968C154013353605E
:101BE00008BD0E4B00221A605A609A601A73084AA8
:101BF000D36823F02003D360094B1B680BB19847CF
:101C000008BD00BF08BD00BF08BD00BF08BD00BFC4
:101C10000038014088010020740100207801002074
:101C20007001002008B5FEF751FEFEF7B9FE08BDB1
:101C300053B94AB9002908BF00281CBF4FF0FF3133
:101C40004FF0FF3000F082B9ADF1080C6DE904CE21
:101C500000F006F8DDF804E0DDE9022304B0704787
:101C60002DE9F04F8C460C460546099E002B4FD1BE
:101C70008A4217466BD9B2FA82FEBEF1000F0BD032
:101C8000CEF1200520FA05F501FA0EF345EA030C22
:101C900002FA0EF700FA0EF5390CBCFBF1F0BAB2FD
:101CA00001FB10C300FB02F84FEA154C4CEA034459
:101CB000A04509D9E41900F1FF3380F02881A0453F
:101CC00040F2258102383C44C8EB0404B4FBF1F334
:101CD00001FB134C03FB02F2ACB244EA0C418A4212
:101CE00009D9C91903F1FF3480F00F818A4240F20B
:101CF0000C81023B39448A1A43EA00400021002E3D
:101D000063D022FA0EF2002386E80C00BDE8F08FC3
:101D10008B4207D9002E56D0002186E811000846D4
:101D2000BDE8F08FB3FA83F1002940F09380A3421D
:101D300002D3824200F2FE80851A64EB03039C46C4
:101D40000120002E41D086E82010BDE8F08F12B9A6
:101D50000127B7FBF2F7B7FA87FEBEF1000F36D1C5
:101D6000E41B4FEA17481FFA87F90121B4FBF8F387
:101D700008FB134409FB03F24FEA154C4CEA0444F8
:101D8000A24207D9E41903F1FF3002D2A24200F2C5
:101D9000D3800346A41AB4FBF8F008FB104809FBF3
:101DA00000F9ACB244EA0842914507D9D21900F1D2
:101DB000FF3402D2914500F2BA802046C9EB0202FC
:101DC00040EA03409BE731463046BDE8F08F07FA12
:101DD0000EF7CEF1200C24FA0CF34FEA1748B3FBB0
:101DE000F8FA1FFA87F908FB1A3520FA0CFC04FAF6
:101DF0000EF40AFB09FB4CEA040C4FEA1C4242EACF
:101E000005439B4500FA0EF50AD9DB190AF1FF32AA
:101E100080F08B809B4540F28880AAF1020A3B4407
:101E2000CBEB0303B3FBF8F008FB103300FB09F422
:101E30001FFA8CFC4CEA03439C4207D9DB1900F1E2
:101E4000FF326ED29C426CD902383B441C1B40EAE4
:101E50000A418BE7C1F1200E8B4022FA0EFC4CEABE
:101E6000030C24FA0EF74FEA1C49B7FBF9FA1FFAE4
:101E70008CF309FB1A7720FA0EF88C400AFB03F565
:101E800048EA04044FEA144848EA0747BD4202FA08
:101E900001F200FA01FB09D917EB0C070AF1FF3038
:101EA00041D2BD423FD9AAF1020A67447F1BB7FB6A
:101EB000F9F509FB157705FB03F3A4B244EA0747DC
:101EC000BB4208D917EB0C0705F1FF3027D2BB4204
:101ED00025D9023D674445EA0A40A0FB0289FF1A62
:101EE0004F4545464C4614D329D066B3BBEB05039A
:101EF00067EB040707FA0EFECB40CF404EEA030320
:101F000086E888000021BDE8F08F2346F3E61846F6
:101F1000DAE6B8EB020569EB0C040138E5E70546A3
:101F2000D9E7104692E78246C0E7924678E7023842
:101F30003A4443E7084604E7023B3C442AE7C345EA
:101F4000E7D33C46D1E73146BDE8F08F704700BF8C
:101F5000014B1868704700BFB800002030B5141E50
:101F600005469BB0184604DA8B232B604FF0FF30F8
:101F70001DE04FF40273ADF80C300CBF234604F1A2
:101F8000FF33029305934FF6FF7300910491ADF870
:101F90000E3002461E9B6946284600F073F8431C2B
:101FA000BCBF8B232B6014B1009B00221A701BB0A6
:101FB00030BD000007B5009313460A4601460348AA
:101FC0000068FFF7CBFF03B05DF804FBB80000200A
:101FD0002DE9F0478E6882469E420C46914698460F
:101FE0003ED88A8912F4906F3AD025680969022395
:101FF0006F1A656905EB450595FBF3F57B1C4344BA
:102000009D4238BF1D4653050FD5294600F04AFBB7
:10201000064698B13A46216900F0D2FAA38923F422
:10202000906343F08003A38113E02A4600F098FBFD
:10203000064670B92169504600F0E8FA0C23CAF848
:102040000030A3894FF0FF3043F04003A381BDE887
:10205000F08726613E44266046466561ED1BA5601B
:10206000464528BF464649463246206800F0B3FA46
:10207000A36800209B1BA36023681E442660BDE864
:10208000F08700002DE9F04F9DB003938B898046C7
:102090001C060D4616460DD50B695BB9402100F0B4
:1020A00001FB2860286118B90C23C8F80030CDE086
:1020B00040236B610023099320238DF82930DFF83A
:1020C0009CB130238DF82A3037463C4614F8013B4A
:1020D0001BB9B7EB060910D003E0252BF9D0274632
:1020E000F3E74B46324629464046FFF771FF013081
:1020F00000F0A780099B4B4409933B78002B00F02C
:10210000A08000234FF0FF320493079305920693BB
:102110008DF853301A930126052221784E4800F09D
:1021200041FA671C049B38B14B4A3C46801A06FAB8
:1021300000F018430490EFE7D90644BF20228DF841
:1021400053201A0744BF2B228DF8532022782A2AC5
:1021500003D0079A00210A200BE0039A111D126890
:102160000391002A10DA524243F0020007920490D1
:102170000BE027463B780134303B092B03D800FBAA
:1021800002320121F5E701B107923B782E2B1ED1D7
:102190007B782A2B0AD1039B02371A1D1B680392F6
:1021A000002BB8BF4FF0FF33059310E00023194612
:1021B0000593781C0A2407463A780130303A092AF8
:1021C00003D804FB01210123F5E703B105910322A4
:1021D0003978224800F0E6F940B14023CBEB00000B
:1021E00003FA00F0049B0137184304903978062263
:1021F0001B487E1C8DF8281000F0D4F988B1194BCB
:1022000033B9039B073323F007030833039314E028
:1022100003AB00932A46144B04A94046AFF3008059
:1022200007E003AB00932A460F4B04A9404600F099
:1022300093F8B0F1FF3F824603D0099B53440993C2
:1022400042E7AB895B0601D4099801E04FF0FF300B
:102250001DB0BDE8F08F00BFD82A0008DE2A0008B4
:10226000E22A000800000000D11F00082DE9F04715
:1022700091461F460A698B6806469342B8BF1346CB
:10228000C9F8003091F843200C46DDF8208012B1E7
:102290000133C9F800302368990642BFD9F80030ED
:1022A0000233C9F80030256815F0060510D104F195
:1022B000190A07E00123524639463046C04701302B
:1022C0001AD00135E368D9F800209B1A9D42F1DB52
:1022D00094F843302268003318BF012392060FD5CB
:1022E000E118302081F843005A1C94F8451022442C
:1022F000023382F8431003E04FF0FF30BDE8F0876F
:1023000004F1430239463046C0470130F4D0226818
:10231000D9F80050E36802F00602042A08BF5D1BEA
:102320002269A3680CBF25EAE57500259342C4BF66
:102330009B1AED184FF000091A344D4509D00123BE
:10234000224639463046C0470130D5D009F101094F
:10235000F3E70020BDE8F0872DE9F04317460A7E39
:1023600085B06E2A984606460C460C9B01F1430E3A
:1023700000F0AE8011D8632A22D009D8002A00F0DC
:10238000BB80582A40F0CA8081F84520834955E037
:10239000642A1ED0692A1CD0C0E0732A00F0B080E5
:1023A00009D86F2A2ED0702A40F0B8800A6842F00F
:1023B00020020A603EE0752A24D0782A3AD0ADE0A7
:1023C0001A6801F14205111D1960136884F8423042
:1023D000A8E021681A6811F0800F02D0111D196061
:1023E00008E011F0400F02F10401196002D0B2F9C7
:1023F000003000E01368002B3CDA2D225B4284F8A9
:10240000432037E021681A6811F0800F02D0111DB7
:10241000196007E011F0400F02F10401196001D0CA
:10242000138800E01368227E5C496F2A14BF0A22D9
:1024300008221BE078225A4984F84520226818684F
:1024400012F0800F00F104051D6003D1550601D57F
:10245000038800E00368D00744BF42F020022260F6
:102460001BB9226822F0200222601022002084F88A
:10247000430001E049490A226568002DA56008DB98
:10248000206820F0040020602BB9002D7DD1754616
:102490000CE0002B79D07546B3FBF2F002FB103351
:1024A000CB5C05F8013D03460028F5D1082A0BD185
:1024B0002368DA0708D5236962689A42DEBF3023B1
:1024C00005F8013C05F1FF35C5EB0E0323612EE055
:1024D00008681A6810F0800F496903D0101D186051
:1024E000136808E010F0400F02F104001860136850
:1024F00001D0198000E0196000232361754616E0C1
:102500001A68111D1960156800216268284600F0DC
:1025100049F808B1401B6060636804E004F14205BB
:1025200084F8422001232361002384F84330CDF84E
:1025300000803B4603AA21463046FFF797FE013054
:1025400002D14FF0FF3026E023692A463946304653
:10255000C0470130F5D023689B0710D5002504F152
:10256000190907E001234A4639463046C047013081
:10257000E7D00135E368039A9B1A9D42F2DBE068DD
:10258000039B9842B8BF184605E00B7804F142055A
:1025900084F842308AE705B0BDE8F083E92A0008F4
:1025A000FA2A000810B5C9B202449042034605D089
:1025B0001C7801308C42F8D1184610BD002010BDA7
:1025C00010B5431E0A44914204D011F8014B03F8A0
:1025D000014FF8E710BD884210B501EB020301D8A6
:1025E000421E0BE09842FBD28118D21AD34204D08B
:1025F00013F8014D01F8014DF8E710BD994204D0E0
:1026000011F8014B02F8014FF8E710BD38B5054647
:10261000002944D051F8043C0C1F002BB8BFE4182B
:1026200000F0D4F81E4A1368114613B963601460B1
:1026300030E0A3420DD92268A018834201BF186878
:102640005B681218226063600C6023E0A24203D82A
:1026500013465A68002AF9D118681918A1420BD1FB
:102660002168014458188242196013D110685268D9
:10267000014419605A600DE002D90C232B6009E077
:1026800021686018824201BF1068526809182160F1
:1026900062605C602846BDE8384000F098B838BDFC
:1026A0009C01002070B5CD1C25F0030508350C2DCC
:1026B00038BF0C25002D064601DBA94202D90C23A8
:1026C000336046E000F082F8234B1C681A4621462E
:1026D000A1B10B685B1B0ED40B2B03D90B60CC187C
:1026E000CD501EE08C420BBF63684B681360636083
:1026F00018BF0C4615E00C464968E9E7174C2368FB
:102700001BB9304600F052F820602946304600F0F0
:102710004DF8431C18D0C41C24F00304A0420DD172
:102720002560304600F053F804F10B00231D20F023
:102730000700C31A0ED05A42E25070BD211A30462B
:1027400000F034F80130EBD10C233360304600F058
:102750003EF8002070BD00BF9C01002098010020C1
:10276000F8B5074615460E4621B91146BDE8F840B2
:10277000FFF798BF1AB9FFF749FF2846F8BD00F0E8
:1027800027F885420ED929463846FFF78BFF0446C5
:1027900050B131462A46FFF713FF31463846FFF75E
:1027A00035FF01E03046F8BD2046F8BD38B5064C8F
:1027B0000023054608462360FDF7E4FD431C02D1D3
:1027C000236803B12B6038BDA0010020704770471B
:1027D00051F8040C0028BEBF091851F8043CC01879
:1027E00004387047537461636B206672616D653A9B
:1027F0000A000000205230203D2020253038580AA1
:1028000000000000205231203D2020253038580A99
:1028100000000000205232203D2020253038580A88
:1028200000000000205233203D2020253038580A77
:102830000000000020523132203D20253038580A57
:1028400000000000204C52203D2020253038580A3E
:1028500000000000205043203D2020253038580A39
:102860000000000020505352203D20253038580AE7
:10287000000000004653522F4641523A0A00000021
:102880002043465352203D2020253038580A00006E
:102890002048465352203D2020253038580A000059
:1028A0002044465352203D2020253038580A00004D
:1028B0002041465352203D2020253038580A000040
:1028C000204D4D464152203D20253038580A000009
:1028D0002042464152203D2020253038580A000031
:1028E0004D6973630A000000204C522F4558435F26
:1028F00052455455524E3D20253038580A000000AC
:102900005B486172644661756C745D0A000000008A
:102910005B4275734661756C745D0A005B5573614B
:1029200067654661756C745D0A0000000000000078
:102930004000000000000000000000000000000057
:102940000000000200000000000C01400000000038
:1029500080000000000000000000000000000000F7
:102960000000002000000000000C014000000000FA
:102970000001000000000000000000000000000056
:102980000000000002000000000C014000000000F8
:102990000100000000000000000000000000000036
:1029A00002000000000000000008014000000000DC
:1029B0000200000000000000000000000000000015
:1029C000200000000000000000080140000000009E
:1029D00004000000000000000000000000000000F3
:1029E000000200000000000000080140000000009C
:1029F00008000000000000000000000000000000CF
:102A0000002000000000000000080140000000005D
:102A100010000000000000000000000000000000A6
:102A2000000002000000000000080140000000005B
:102A30002000000000000000000000000000000076
:102A4000000020000000000000080140000000001D
:102A50004000000000000000000000000000000036
:102A6000000000020000000000080140000000001B
:102A700080000000000000000000000000000000D6
:102A800000000020000000000008014000000000DD
:102A900000000000001001400020000000000000C5
:102AA0000020000000000000000000000000000006
:102AB00000000000000010000010014000000000B5
:102AC000C802002000000000B80200200100000041
:102AD000A401002064000000232D302B2000686C2E
:102AE0004C00656667454647003031323334353631
:102AF000373839414243444546003031323334356A
:0B2B0000363738396162636465660097
:082B0C0054F1FF7F01000000FD
:102B140078563412C80000200000000000000000B5
:102B240000000000010203040607080900A24A0489
:102B340000E100E0FFFFFFFF0000000000000000D4
:102B440020000000000000000000C00000000000A1
:102B54000000000000000000000C01400000000024
:102B6400DD00000000000000000000000000000084
:102B74000000000000000000000000000000000051
:102B84000000000000000000000000000000000041
:102B94000000000000000000000000000000000031
:102BA4000000000000000000000000000000000021
:102BB4000000000000000000000000000000000011
:102BC40000000000000000005800002032547698F5
:040000050800010DE1
:00000001FF
